{
    "contractName": "DugongTreasury",
    "abi": [
        {
            "inputs": [],
            "stateMutability": "nonpayable",
            "type": "constructor"
        },
        {
            "inputs": [
                {
                    "internalType": "address",
                    "name": "tokenAddress",
                    "type": "address"
                },
                {
                    "internalType": "address",
                    "name": "spender",
                    "type": "address"
                },
                {
                    "internalType": "uint256",
                    "name": "amount",
                    "type": "uint256"
                }
            ],
            "name": "approveToken",
            "outputs": [
                {
                    "internalType": "bool",
                    "name": "",
                    "type": "bool"
                }
            ],
            "stateMutability": "nonpayable",
            "type": "function"
        },
        {
            "inputs": [
                {
                    "internalType": "address",
                    "name": "recipient",
                    "type": "address"
                },
                {
                    "internalType": "uint256",
                    "name": "amount",
                    "type": "uint256"
                }
            ],
            "name": "sendEther",
            "outputs": [
                {
                    "internalType": "bool",
                    "name": "",
                    "type": "bool"
                }
            ],
            "stateMutability": "nonpayable",
            "type": "function"
        },
        {
            "inputs": [
                {
                    "internalType": "address",
                    "name": "tokenAddress",
                    "type": "address"
                },
                {
                    "internalType": "address",
                    "name": "recipient",
                    "type": "address"
                },
                {
                    "internalType": "uint256",
                    "name": "amount",
                    "type": "uint256"
                }
            ],
            "name": "sendToken",
            "outputs": [
                {
                    "internalType": "bool",
                    "name": "",
                    "type": "bool"
                }
            ],
            "stateMutability": "nonpayable",
            "type": "function"
        },
        {
            "stateMutability": "payable",
            "type": "receive"
        }
    ],
    "bytecode": "608060405234801561001057600080fd5b50600080546001600160a01b03191673baa1374ea7f5390540a24809aa90b29512b2aaf2179055610346806100466000396000f3fe6080604052600436106100385760003560e01c80632fdcfbd214610044578063c1756a2c14610078578063da3e33971461009857600080fd5b3661003f57005b600080fd5b34801561005057600080fd5b5061006461005f366004610252565b6100b8565b604051901515815260200160405180910390f35b34801561008457600080fd5b5061006461009336600461028e565b61016b565b3480156100a457600080fd5b506100646100b3366004610252565b6101d6565b600080546001600160a01b031633146100ec5760405162461bcd60e51b81526004016100e3906102b8565b60405180910390fd5b60405163a9059cbb60e01b81526001600160a01b0384811660048301526024820184905285169063a9059cbb906044015b6020604051808303816000875af115801561013c573d6000803e3d6000fd5b505050506040513d601f19601f8201168201806040525081019061016091906102e7565b506001949350505050565b600080546001600160a01b031633146101965760405162461bcd60e51b81526004016100e3906102b8565b6040516001600160a01b0384169083156108fc029084906000818181858888f193505050501580156101cc573d6000803e3d6000fd5b5060019392505050565b600080546001600160a01b031633146102015760405162461bcd60e51b81526004016100e3906102b8565b60405163095ea7b360e01b81526001600160a01b0384811660048301526024820184905285169063095ea7b39060440161011d565b80356001600160a01b038116811461024d57600080fd5b919050565b60008060006060848603121561026757600080fd5b61027084610236565b925061027e60208501610236565b9150604084013590509250925092565b600080604083850312156102a157600080fd5b6102aa83610236565b946020939093013593505050565b6020808252601590820152742cb7ba93b932903737ba103a34329037bbb732b91760591b604082015260600190565b6000602082840312156102f957600080fd5b8151801515811461030957600080fd5b939250505056fea26469706673582212200ee88a5178a71ac41cb56e45a62e8a16bf86dc2cade21bbd59b8eb5dfc2cb84864736f6c63430008120033",
    "sourcePath": "d:/Project/myapp/contracts/Treasury/DugongTreasury.sol",
    "compiler": {
        "name": "solc",
        "version": "0.8.18+commit.87f61d96"
    },
    "functionHashes": {
        "approveToken(address,address,uint256)": "da3e3397",
        "sendEther(address,uint256)": "c1756a2c",
        "sendToken(address,address,uint256)": "2fdcfbd2"
    },
    "gasEstimates": {
        "creation": {
            "codeDepositCost": "167600",
            "executionCost": "24450",
            "totalCost": "192050"
        },
        "external": {
            "approveToken(address,address,uint256)": "infinite",
            "sendEther(address,uint256)": "infinite",
            "sendToken(address,address,uint256)": "infinite"
        }
    }
}